S01100004E69786965436F64652E737265639B
S11300000C94FD000C941A010C941A010C941A011E
S11300100C941A010C9444010C941A010C941A01C6
S11300200C941A010C941A010C941A010C940702F2
S11300300C941A010C941A010C941A010C941A01D0
S11300400C941A010C941A010C941A010C941A01C0
S11300500C941A010C941A010C941A010C941A01B0
S11300600C9475060C941A01630767076707670702
S113007067076707670767079206670767076707E2
S113008067076707670767079206670767076707D2
S113009067076707670767079A06670767076707BA
S11300A06707670767076707B30667076707670791
S11300B067076707670767079A066707670767079A
S11300C06707670767076707B9066707670767076B
S11300D06707670767076707BF0667076707670755
S11300E06707670767076707D10667076707670733
S11300F06707670767076707EB0667076707670709
S11301006707670767076707C5066707670767071E
S11301106707670767076707DF06670767076707F4
S11301206707670767076707EE06670767076707D5
S11301306707670767076707EE06670767076707C5
S11301406707670767076707EE06670767076707B5
S11301506707670767076707EE06670767076707A5
S11301606707670767076707F7066707670767078C
S113017067076707670767072A0767076707670748
S11301806707670767076707F7066707670767076C
S113019067076707670767072A0767076707670728
S11301A067076707670767070F0767076707670733
S11301B067076707670767072E0767076707670704
S11301C067076707670767072E07670767076707F4
S11301D067076707670767074307670767076707CF
S11301E067076707670767075D07670767076707A5
S11301F067076707670767075D0711241FBECFEF0F
S1130200D8E0DEBFCDBF11E0A0E0B1E0E8E6F0E168
S113021002C005900D92A830B107D9F721E0A8E0FB
S1130220B1E001C01D92A33EB207E1F70E94E802CB
S11302300C9432080C940000F8948AB18F618AB946
S1130240E8E6F0E08081846080838BB1806E8BB9B6
S1130250EDE6F0E08081806E8083289A8BB1846122
S11302608BB9589880E490E032E0599A00002BB1A1
S113027023272BB900000197C1F75B9A5A98789409
S113028008958091080108951F920F920FB60F925E
S113029011244F925F926F927F928F929F92BF929E
S11302A0CF92DF92EF92FF920F931F932F933F937E
S11302B04F935F936F937F938F939F93AF93BF936A
S11302C0CF93DF93EF93FF9349B1429546954770DF
S11302D0409309011091000114270E94F301C09179
S11302E00901D0E0B0900801EAE0F1E020E030E05C
S11302F0412F50E044244394512CDA01022E02C0D1
S1130300B595A7950A94E2F7A0FF31C0DF01C0803C
S1130310D180E280F3803B014C016C187D088E088B
S11303209F0812E3611671048104910400F17E01B7
S1130330022E02C0F594E7940A94E2F7E0FC09C0A7
S11303407201022E02C0EE0CFF1C0A94E2F7BE28D2
S113035009C07201022E02C0EE0CFF1C0A94E2F7DF
S1130360E094BE206D937D938D939C9313972F5FA0
S11303703F4F34962330310509F0BFCFB0920801C6
S11303808091090180930001FF91EF91DF91CF915A
S1130390BF91AF919F918F917F916F915F914F9199
S11303A03F912F911F910F91FF90EF90DF90CF908D
S11303B0BF909F908F907F906F905F904F900F9021
S11303C00FBE0F901F9018951092800089E08093C3
S11303D0810082E080936F0088EE93E0909389001F
S11303E08093880008950F931F938FB7F89400911A
S11303F016011091170120911801309119018FBF36
S1130400602F712F822F932F1F910F9108951F92A8
S11304100F920FB60F9211248F939F93AF93BF93B4
S11304208091160190911701A0911801B0911901C2
S11304300196A11DB11D8093160190931701A093FD
S11304401801B0931901BF91AF919F918F910F90B3
S11304500FBE0F901F9018956F927F928F929F926C
S1130460AF92BF92CF92DF92EF92FF920F931F93BE
S1130470CF93DF934C01762E642EDC011696EDE3C8
S1130480F0E0F12CE12CD12CC0E0C12CB12CA12C3A
S1130490D0E08E918A3070F5811113C021E030E0F4
S11304A040E050E060E070E090E00E2F0E94000811
S11304B0F22AE32AD42AC52BC62AB72AA82AD92B7A
S11304C019C08F010B501109080F111D0F5F1F4F29
S11304D021E030E040E050E060E070E080E090E057
S11304E00E940008F22AE32AD42AC52BC62AB72A76
S11304F0A82AD92B3A97EF31F10559F6D40113966E
S1130500EDE1F0E08E918A3070F5811113C021E0A5
S113051030E040E050E060E070E090E00E2F0E9498
S11305200008F22AE32AD42AC52BC62AB72AA82A05
S1130530D92B19C08F0109501109080F111D015041
S1130540110921E030E040E050E060E070E080E03C
S113055090E00E940008F22AE32AD42AC52BC62A76
S1130560B72AA82AD92B3A97EF3F8FEFF80751F60D
S11305707110C0646110D064EFE3F0E02F2D3E2DC4
S11305804D2D5C2F6C2D7B2D8A2D9D2F0E2F0E94BF
S11305900F0820FF02C0589A01C05898599A0000C9
S11305A05998319758F75A9A00009BB184E08927EB
S11305B08BB9DF91CF911F910F91FF90EF90DF9056
S11305C0CF90BF90AF909F908F907F906F90089541
S11305D0CF93DF93CDB7DEB764970FB6F894DEBF41
S11305E00FBECDBF0E941C010E94E4010E94780747
S11305F00E94A104FE01319686E0DF011D928A95D6
S1130600E9F786E0E1E0F1E0DE01179601900D9252
S11306108A95E1F71D861E86188A198A1A8A1B8A0A
S1130620912C1C8A0F2EF6E04F2EF02D812C212CBC
S1130630312CCC24C3940F2EFBE0DF2EF02D0F2E93
S1130640FDEC5F2EF02D0F2EFAE0AF2EB12CF02D25
S11306500F2EF7E0EF2EF12CF02DEC0EFD1E3F8651
S1130660722C342CC701E82CF92C4C010E94CF04C5
S11306708C010E944101482E80FF09C0F0FC09C092
S1130680822D90E0019683709078F82E03C0F22CAE
S113069001C0F22CF1108AC0F80184819581B50162
S11306A00E94E6078A83698382819381B5010E944F
S11306B0E607282F8C8382819381B5010E94E60787
S11306C06B8380819181B5010E94E607382F8E8368
S11306D080819181B5010E94E6076D837312EC2439
S11306E0FF85F21791F0311013C0CF8222E02887E2
S11306F033E0398784E08A8785E08B8786E08C87BE
S11307000F2EF6E03F2EF02D03C0332009F449C02C
S1130710832D90E00197E1E0F0E0EC0FFD1FE80F7E
S1130720F91FA7E0B0E0AC0FBD1FA80FB91F2081CF
S11307308C91281307C04C894F5F4C8B423011F4C5
S11307403A941C8A832D90E001972AF1E32DF0E07E
S113075027E030E02C0F3D1F2E0F3F1F81E090E07B
S11307608C0F9D1FE80FF91F21503109D9018C917D
S1130770319780838F5F859D912D11249695969551
S11307809695990F492F440F440F940F891B8C930E
S11307902815390549F7A9EFB0E01197F1F700C022
S11307A000007E80BC81BF872F2C94C0E1E0FE1244
S11307B03AC02E1631F00E94F301688B798B8A8B34
S11307C09B8B0E94F301DC01CB01288939894A897A
S11307D05B89821B930BA40BB50B2C2C81319742A4
S11307E0A105B10508F0212CD80118968D919C9192
S11307F01997B5010E94E6078A836983F801868107
S11308009781B5010E94E6078C836B83828593856B
S1130810B5010E94E6078E83CB01B5010E94E6076D
S11308208D83EC2C57C0F2E0FF1247C02F1631F035
S11308300E94F301688B798B8A8B9B8B0E94F30156
S1130840DC01CB01288939894A895B89821B930B96
S1130850A40BB50B81319742A105B10510F42F2CDF
S113086001C0212CBE01625F7F4FCE010D960E9414
S11308706905D982DA828D8547E68402912D112497
S11308809595959587FD93959B83990F292F220F15
S1130890220F920F891B8C838E85859D912D1124A7
S11308A09695969596959D83990F292F220F220F41
S11308B0920F891B8E83EC2C0DC053E0F51209C0F6
S11308C019821A821B821C821D821E822F2CEC2C00
S11308D001C02F2C4E2D6E2DCE0101960E942C02AC
S11308E0F42CC4CE982F92959F70990F292F220F24
S11308F0220F920F8F70890F0895CF93C82F88E627
S11309000E9490078C2F0E94AA070E949A0761E018
S113091088E60E9483070E94D507CF910895CF935C
S1130920DF93C82FD62F88E60E9490078D2F0E9450
S1130930AA078C2F0E94AA070E949A07DF91CF91E1
S11309400895CF93DF9381E10E947D04D82F82E143
S11309500E947D04C82F61E18EEE0E948F0462E143
S11309608DED0E948F0481E10E947D048E3E89F406
S113097082E10E947D048D3D61F481E080931A013F
S113098061E18D2F0E948F0462E18C2F0E948F04FD
S113099003C081E080931B01DF91CF910895EF9212
S11309A0FF920F931F93CF93DF93CDB7DEB72997B1
S11309B00FB6F894DEBF0FBECDBF88E60E94900745
S11309C080E00E94AA070E949A0767E088E60E94D6
S11309D083078E010F5F1F4F7E0188E0E80EF11C34
S11309E00E94D507F80181938F01EE15FF05C1F729
S11309F00E949A0789818F770E947204EEE8F1E0E1
S1130A00808311828A810E947204E0E9F1E080838C
S1130A1011828B810E947204082F10E010939301BD
S1130A20009392018D810E947204E4E9F1E08083D5
S1130A301182FE808F2D8F710E947204E6E9F1E02D
S1130A4080831182FF203CF48F810E94720490E025
S1130A508053984F06C08F810E94720490E084599D
S1130A60984F90939901809398018C810E9472040D
S1130A70EAE9F1E0808311820115110541F4109235
S1130A809E0110929D0181E080939C0113C00C3063
S1130A90110544F410939E0100939D0181E080931D
S1130AA09C0108C00C50110910939E0100939D01F4
S1130AB010929C018EE891E029960FB6F894DEBF5F
S1130AC00FBECDBFDF91CF911F910F91FF90EF909B
S1130AD00895FF920F931F93CF93DF938C01EB0143
S1130AE0FC011082188280911A01811120C088E6CD
S1130AF00E94900781E10E94AA070E949A0762E07F
S1130B0088E60E9483070E94CF07882381F00E9411
S1130B10D507F82E0E94D507F801F08282958695B4
S1130B208695837099E1899F802D11248883DF91B4
S1130B30CF911F910F91FF90089510922101449A33
S1130B40459AE9EBF0E080818E7F808380818D7F00
S1130B50808388E48093B80085E48093BC00089582
S1130B604132A8F5909121019111FCCF91E090932D
S1130B7021019FEF90931C0110922001942F91501A
S1130B8090932201282F30E0220F331F21602093FD
S1130B90230185EE8093BC00809121018130E1F333
S1130BA080912001841710F440912001442381F0A6
S1130BB0E4E2F1E0A62FB72F242F215030E02B5D83
S1130BC03E4F91919D93E217F307D9F701C040E09E
S1130BD0842F0895CF93DF93413208F041C0909160
S1130BE021019111FCCF92E0909321019FEF90930A
S1130BF01C011092200140932201442389F0E62F26
S1130C00F72FA4E2B1E0BF016F5F7F4F4150EB01CA
S1130C10C40FD11DAE0191919D93E417F507D9F747
S1130C2090E0880F991F8093230185EE8093BC0088
S1130C30222341F080912101823021F4809121010D
S1130C408230E1F380911C018F3F61F080911C019F
S1130C50803251F080911C01803341F483E007C05D
S1130C6081E005C080E003C082E001C084E0DF9140
S1130C70CF9108956132C0F4209121012430B1F460
S1130C8060931E016623A1F0E82FF92FA4E4B1E0DC
S1130C90CF0101966150860F911D21912D93E81784
S1130CA0F907D9F780E0089581E0089582E0089576
S1130CB080E00895882321F085EC8093BC0008959A
S1130CC085E88093BC00089585ED8093BC00ECEB2F
S1130CD0F0E0808184FDFDCF10922101089585EC20
S1130CE08093BC001092210108951F920F920FB6B9
S1130CF00F9211242F933F934F935F936F937F939E
S1130D008F939F93AF93BF93EF93FF93E091B900B9
S1130D10E87FF0E0E93CF10508F0D9C0EC5CFF4F56
S1130D200C94FA07809123018093BB0081E00E9418
S1130D305A06CDC09091200180912201981780F429
S1130D4080912001E82FF0E0EC5DFE4F90819093BC
S1130D50BB008F5F8093200181E00E945A06B7C0D8
S1130D600E946406B4C080E280931C010E94640661
S1130D70AEC080E380931C010E946406A8C088E38F
S1130D8080931C010E946F06A2C080912001909163
S1130D90BB00E82FF0E0EC5DFE4F90838F5F809303
S1130DA020019091200180912201981720F481E084
S1130DB00E945A068CC080E00E945A0688C0809126
S1130DC020019091BB00E82FF0E0EC5DFE4F908392
S1130DD08F5F809320010E94640679C083E0809332
S1130DE0210110921D0181E00E945A0670C0809179
S1130DF01D01803280F480911D019091BB00E82F89
S1130E00F0E0E859FE4F90838F5F80931D0181E0ED
S1130E100E945A065CC080E00E945A0658C0809125
S1130E201D01803230F4E0911D01F0E0E859FE4FDD
S1130E3010820E94640660911D01E0916401F091AA
S1130E40650170E088E691E0099510921D010E9409
S1130E506F063DC080E00E945A0639C084E080934A
S1130E60210110921F0110921E01E0916601F09180
S1130E706701099580911E01811105C081E080936D
S1130E801E011092440180911F01E82FF0E0EC5BF9
S1130E90FE4F90819093BB008F5F80931F019091D0
S1130EA01F0180911E01981720F481E00E945A06C8
S1130EB00EC080E00E945A060AC081E00E945A06D1
S1130EC01092210104C010921C010E946406FF913B
S1130ED0EF91BF91AF919F918F917F916F915F91AE
S1130EE04F913F912F910F900FBE0F901F90189527
S1130EF010928D0110928C0110928A011092890136
S1130F000E949D050895462F613208F040E261EA8F
S1130F1071E00E94B00510928D0180938C010895B8
S1130F2091E09093880180938B0110928A01109232
S1130F308901089521E04091890161EC71E080917B
S1130F408B010E94EA0510928A0110928901109285
S1130F5088010895CF93DF931F92CDB7DEB78983BD
S1130F6080918801882391F080918901803298F4DE
S1130F7080918A01E82FF0E0EF53FE4F998190832E
S1130F808F5F80938A018093890105C061E0CE015F
S1130F9001960E943A060F90DF91CF9108958091B7
S1130FA08C0190918D01891B089590918D01809100
S1130FB08C01981748F4E92FF0E0EF55FE4F80813B
S1130FC09F5F90938D01089580E0089597FB072E0D
S1130FD016F4009407D077FD09D00E941E0807FC80
S1130FE005D03EF4909581959F4F08957095619535
S1130FF07F4F0895EE0FFF1F0590F491E02D0994A3
S11310000F930F7351F0220F331F441F551F661F98
S1131010771F881F991F0A95B1F70F9108950F93B1
S11310200F7351F0969587957795679557954795E2
S1131030379527950A95B1F70F910895AA1BBB1B05
S113104051E107C0AA1FBB1FA617B70710F0A61BC4
S1131050B70B881F991F5A95A9F780959095BC01E5
S10B1060CD010895F894FFCFBF
S10B1068070102030405060060
S9030000FC
