:100000000C94FD000C941A010C941A010C941A0122
:100010000C941A010C9444010C941A010C941A01CA
:100020000C941A010C941A010C941A010C940702F6
:100030000C941A010C941A010C941A010C941A01D4
:100040000C941A010C941A010C941A010C941A01C4
:100050000C941A010C941A010C941A010C941A01B4
:100060000C948F070C941A017D088108810881087F
:100070008108810881088108AC078108810881080E
:100080008108810881088108AC07810881088108FE
:100090008108810881088108B407810881088108E6
:1000A0008108810881088108CD07810881088108BD
:1000B0008108810881088108B407810881088108C6
:1000C0008108810881088108D30781088108810897
:1000D0008108810881088108D90781088108810881
:1000E0008108810881088108EB078108810881085F
:1000F0008108810881088108050881088108810834
:100100008108810881088108DF078108810881084A
:100110008108810881088108F90781088108810820
:100120008108810881088108080881088108810800
:1001300081088108810881080808810881088108F0
:1001400081088108810881080808810881088108E0
:1001500081088108810881080808810881088108D0
:1001600081088108810881081108810881088108B7
:100170008108810881088108440881088108810874
:100180008108810881088108110881088108810897
:100190008108810881088108440881088108810854
:1001A000810881088108810829088108810881085F
:1001B0008108810881088108480881088108810830
:1001C0008108810881088108480881088108810820
:1001D00081088108810881085D08810881088108FB
:1001E00081088108810881087708810881088108D1
:1001F0008108810881088108770811241FBECFEF8C
:10020000D8E0DEBFCDBF11E0A0E0B1E0E8EFF2E161
:1002100002C005900D92A830B107D9F721E0A8E0FF
:10022000B1E001C01D92A33EB207E1F70E94E802CF
:100230000C947A090C940000F8948AB18F618AB901
:10024000E8E6F0E08081846080838BB1806E8BB9BA
:10025000EDE6F0E08081806E8083289A8BB1846126
:100260008BB9589880E490E032E0599A00002BB1A5
:1002700023272BB900000197C1F75B9A5A9878940D
:1002800008958091080108951F920F920FB60F9262
:1002900011244F925F926F927F928F929F92BF92A2
:1002A000CF92DF92EF92FF920F931F932F933F9382
:1002B0004F935F936F937F938F939F93AF93BF936E
:1002C000CF93DF93EF93FF9349B1429546954770E3
:1002D000409309011091000114270E94F301C0917D
:1002E0000901D0E0B0900801EAE0F1E020E030E060
:1002F000412F50E044244394512CDA01022E02C0D5
:10030000B595A7950A94E2F7A0FF31C0DF01C08040
:10031000D180E280F3803B014C016C187D088E088F
:100320009F0812E3611671048104910400F17E01BB
:10033000022E02C0F594E7940A94E2F7E0FC09C0AB
:100340007201022E02C0EE0CFF1C0A94E2F7BE28D6
:1003500009C07201022E02C0EE0CFF1C0A94E2F7E3
:10036000E094BE206D937D938D939C9313972F5FA4
:100370003F4F34962330310509F0BFCFB0920801CA
:100380008091090180930001FF91EF91DF91CF915E
:10039000BF91AF919F918F917F916F915F914F919D
:1003A0003F912F911F910F91FF90EF90DF90CF9091
:1003B000BF909F908F907F906F905F904F900F9025
:1003C0000FBE0F901F9018951092800089E08093C7
:1003D000810082E080936F0088EE93E09093890023
:1003E0008093880008950F931F938FB7F89400911E
:1003F00016011091170120911801309119018FBF3A
:10040000602F712F822F932F1F910F9108951F92AC
:100410000F920FB60F9211248F939F93AF93BF93B8
:100420008091160190911701A0911801B0911901C6
:100430000196A11DB11D8093160190931701A09301
:100440001801B0931901BF91AF919F918F910F90B7
:100450000FBE0F901F9018956F927F928F929F9270
:10046000AF92BF92CF92DF92EF92FF920F931F93C2
:10047000CF93DF934C01762E642EDC011696EDE3CC
:10048000F0E0F12CE12CD12CC0E0C12CB12CA12C3E
:10049000D0E08E918A3070F5811113C021E030E0F8
:1004A00040E050E060E070E090E00E2F0E944809CC
:1004B000F22AE32AD42AC52BC62AB72AA82AD92B7E
:1004C00019C08F010B501109080F111D0F5F1F4F2D
:1004D00021E030E040E050E060E070E080E090E05B
:1004E0000E944809F22AE32AD42AC52BC62AB72A31
:1004F000A82AD92B3A97EF31F10559F6D401139672
:10050000EDE1F0E08E918A3070F5811113C021E0A9
:1005100030E040E050E060E070E090E00E2F0E949C
:100520004809F22AE32AD42AC52BC62AB72AA82AC0
:10053000D92B19C08F0109501109080F111D015045
:10054000110921E030E040E050E060E070E080E040
:1005500090E00E944809F22AE32AD42AC52BC62A31
:10056000B72AA82AD92B3A97EF3F8FEFF80751F611
:100570007110C0646110D064EFE3F0E02F2D3E2DC8
:100580004D2D5C2F6C2D7B2D8A2D9D2F0E2F0E94C3
:10059000570920FF02C0589A01C05898599A000084
:1005A0005998319758F75A9A00009BB184E08927EF
:1005B0008BB9DF91CF911F910F91FF90EF90DF905A
:1005C000CF90BF90AF909F908F907F906F90089545
:1005D000CF93DF93CDB7DEB7A1970FB6F894DEBF08
:1005E0000FBECDBF0E941C010E94E4010E94920830
:1005F0000E947605FE01319686E0DF011D928A9504
:10060000E9F786E0E1E0F1E0DE01179601900D9256
:100610008A95E1F71D861E86312CC12CD12C7601DE
:100620001C8E1D8E1E8E1F8E198E188E1A8E1B8A82
:100630001B8E912C1F8A16E0A12CB12C55245394AB
:100640000F2EFDEC4F2EF02D0F2EF7E06F2E712C9C
:10065000F02D6C0E7D1E812ECF86D88AE98AFA8A0B
:1006600079A268A2692C0E94A4058C010E94410114
:10067000782E80FF09C060FC09C0832D90E00196B0
:1006800083709078D82E03C0D32C01C0D32C71FE78
:1006900005C061FA222420F8252401C0212C72FE15
:1006A00005C062FA662460F8652401C0612CD1108F
:1006B000ADC0F801848195812AE030E0B9010E9443
:1006C00000098A83698382819381B9010E940009AC
:1006D0008C8382819381B9010E9400096B838081A0
:1006E0009181B9010E9400098E8380819181B901B5
:1006F0000E9400096D83222061F08281938101961E
:100700006CE370E00E94000993838283C8010E9419
:100710003E06662081F0D80114968D919C91159724
:10072000019668E170E00E940009F80195838483D6
:10073000C8010E943E068E818A1195248C818B15FA
:1007400091F0811013C05F8282E0888783E08987FF
:1007500084E08A8785E08B8786E08C870F2EF6E021
:100760008F2EF02D03C0882009F44CC0882D90E016
:100770000197E1E0F0E0EC0FFD1FE80FF91FA7E0A3
:10078000B0E0AC0FBD1FA80FB91F20818C912813BA
:1007900007C00F890F5F0F8B023011F48A941F8AF4
:1007A000882D90E0019742F1E82DF0E087E090E09D
:1007B0008C0F9D1F8E0F9F1F21E030E02C0F3D1FDF
:1007C000E20FF31FE8A0F9A00197DC012C9131970B
:1007D00020832F5F249D312D112436953695369533
:1007E000330F432F440F440F340F231B2C938E15CC
:1007F0009F0551F7F9A2E8A289EF90E00197F1F780
:1008000000C00000AE80BC803D2C26C191E0D91212
:100810003CC0391631F00E94F3016F87788B898BC9
:100820009A8B0E94F301DC01CB012F85388949891D
:100830005A89821B930BA40BB50B352C813197423F
:10084000A105B10508F0312CD80118968D919C9125
:1008500019972AE030E0B9010E9400098A83698370
:10086000F80186819781B9010E9400098C836B830E
:1008700082859385B9010E9400098E83CB01B9015D
:100880000E9400098D83952CE7C0F2E0DF1248C07A
:100890003F1631F00E94F3016F87788B898B9A8B1A
:1008A0000E94F301DC01CB01EF84F88809891A89E1
:1008B0008E199F09A00BB10B81319742A105B1059B
:1008C00010F43D2C01C0312CBE01625F7F4FCE0180
:1008D0000D960E9483068BE089838A838D8597E637
:1008E0008902912D11249595959587FD93959B836C
:1008F000990F292F220F220F920F891B8C838E852F
:10090000849D912D11249695969596959D83990F8A
:10091000292F220F220F920F891B8E83912C9CC0AE
:1009200013E0D11298C0EB8CEE2079F161101B8E90
:100930000E94F3017B018C012C8D3D8D4E8D5F8DCE
:10094000E21AF30A040B150BEB8AFC8A0D8B1E8B43
:10095000C801B70128EE33E040E050E00E941409DE
:10096000798F688FCA01B9012CE330E040E050E094
:100970000E9414096A8FC801B70120E63AEE40E0F0
:1009800050E00E9414092B8B1FC06620B9F0E88C40
:10099000F98CEF2871F4FA8CF1100DC00B8901115C
:1009A0000CC00E94F3016C8F7D8F8E8F9F8F5B8EAA
:1009B00005C05B8E03C05B8E01C05B8E222021F0E0
:1009C000198E188E1A8E1B8A1B89149D812D112455
:1009D0008695869586958983880F982F990F990F0C
:1009E000890F181B1A83EA8CE49C812D11248695AB
:1009F000869586958B83880F982F990F990F890F6D
:100A0000E81AEC82288D398D3695279536952795ED
:100A1000ABE7B4E10E943C09969587958D830F2E34
:100A2000F4E6FF2EF02DF89E9001F99E300D112472
:100A3000088D198D021B130B9801ADECBCEC0E94C4
:100A40003C099695879596958795969587958E837B
:100A50003D2C952C01C03D2C492D692DCE010196D0
:100A60000E942C02672CFFCD9DEC899F912D1124B3
:100A7000969596959695292F220F322F330F330F87
:100A8000230F821B20E1929F800D11240895982F3F
:100A900092959F70990F292F220F220F920F8F701E
:100AA000890F0895CF93C82F88E60E94AA088C2F3B
:100AB0000E94C4080E94B40861E088E60E949D0874
:100AC0000E94EF08CF910895CF93DF93C82FD62FC0
:100AD00088E60E94AA088D2F0E94C4088C2F0E94CD
:100AE000C4080E94B408DF91CF910895CF93DF939B
:100AF00081E10E945205D82F82E10E945205C82F41
:100B000061E18EEE0E94640562E18DED0E94640554
:100B100081E10E9452058E3E89F482E10E945205D5
:100B20008D3D61F481E080931A0161E18D2F0E9477
:100B3000640562E18C2F0E94640503C081E080930C
:100B40001B01DF91CF910895EF92FF920F931F93B6
:100B5000CF93DF93CDB7DEB729970FB6F894DEBFFA
:100B60000FBECDBF88E60E94AA0880E00E94C4089C
:100B70000E94B40867E088E60E949D088E010F5F1E
:100B80001F4F7E0188E0E80EF11C0E94EF08F8017B
:100B900081938F01EE15FF05C1F70E94B40889818A
:100BA0008F770E944705EEE8F1E0808311828A8109
:100BB0000E944705E0E9F1E0808311828B810E9469
:100BC0004705082F10E010939301009392018D8147
:100BD0000E944705E4E9F1E080831182FE808F2DB9
:100BE0008F710E944705E6E9F1E080831182FF20C2
:100BF0003CF48F810E94470590E08053984F06C0D7
:100C00008F810E94470590E08459984F90939901F5
:100C1000809398018C810E944705EAE9F1E0808386
:100C200011820115110541F410929E0110929D014F
:100C300081E080939C0113C00C30110544F41093A3
:100C40009E0100939D0181E080939C0108C00C509F
:100C5000110910939E0100939D0110929C018EE852
:100C600091E029960FB6F894DEBF0FBECDBFDF919D
:100C7000CF911F910F91FF90EF9008951F93CF9305
:100C8000DF93EC0188E60E94AA0880E00E94C40875
:100C90008A859B85813D27E0920734F0805D9740EF
:100CA0009B878A8710E805C08C5697409B878A8768
:100CB00010E088810E9434050E94C4088A810E9445
:100CC00034050E94C4088C810E9434050E94C40827
:100CD0008C850E9434050E94C4088E810E943405D0
:100CE0000E94C40888850E943405810F0E94C408B0
:100CF0008A850E9434050E94C4080E94B408DF91CE
:100D0000CF911F910895FF920F931F93CF93DF937D
:100D10008C01EB01FC011082188280911A01811173
:100D200020C088E60E94AA0881E10E94C4080E94AF
:100D3000B40862E088E60E949D080E94E9088823C2
:100D400081F00E94EF08F82E0E94EF08F801F0826F
:100D5000829586958695837099E1899F802D1124CF
:100D60008883DF91CF911F910F91FF90089510928A
:100D70002101449A459AE9EBF0E080818E7F8083DF
:100D800080818D7F808388E48093B80085E48093A0
:100D9000BC0008954132A8F5909121019111FCCF3A
:100DA00091E0909321019FEF90931C0110922001FC
:100DB000942F915090932201282F30E0220F331F5F
:100DC00021602093230185EE8093BC008091210156
:100DD0008130E1F380912001841710F440912001CB
:100DE000442381F0E4E2F1E0A62FB72F242F215015
:100DF00030E02B5D3E4F91919D93E217F307D9F7B9
:100E000001C040E0842F0895CF93DF93413208F072
:100E100041C0909121019111FCCF92E0909321016A
:100E20009FEF90931C0110922001409322014423D4
:100E300089F0E62FF72FA4E2B1E0BF016F5F7F4F8B
:100E40004150EB01C40FD11DAE0191919D93E41768
:100E5000F507D9F790E0880F991F8093230185EE5D
:100E60008093BC00222341F080912101823021F443
:100E7000809121018230E1F380911C018F3F61F06C
:100E800080911C01803251F080911C01803341F42B
:100E900083E007C081E005C080E003C082E001C0BC
:100EA00084E0DF91CF9108956132C0F42091210157
:100EB0002430B1F460931E016623A1F0E82FF92FCE
:100EC000A4E4B1E0CF0101966150860F911D2191FC
:100ED0002D93E817F907D9F780E0089581E0089588
:100EE00082E0089580E00895882321F085EC8093C6
:100EF000BC00089585E88093BC00089585ED80933B
:100F0000BC00ECEBF0E0808184FDFDCF109221016C
:100F1000089585EC8093BC001092210108951F92E2
:100F20000F920FB60F9211242F933F934F935F931D
:100F30006F937F938F939F93AF93BF93EF93FF93A1
:100F4000E091B900E87FF0E0E93CF10508F0D9C094
:100F5000EC5CFF4F0C943609809123018093BB0019
:100F600081E00E947407CDC0909120018091220100
:100F7000981780F480912001E82FF0E0EC5DFE4F9F
:100F800090819093BB008F5F8093200181E00E944D
:100F90007407B7C00E947E07B4C080E280931C0132
:100FA0000E947E07AEC080E380931C010E947E07F2
:100FB000A8C088E380931C010E948907A2C0809189
:100FC00020019091BB00E82FF0E0EC5DFE4F908394
:100FD0008F5F8093200190912001809122019817CA
:100FE00020F481E00E9474078CC080E00E947407A6
:100FF00088C0809120019091BB00E82FF0E0EC5D6B
:10100000FE4F90838F5F809320010E947E0779C0FE
:1010100083E08093210110921D0181E00E947407FA
:1010200070C080911D01803280F480911D019091EB
:10103000BB00E82FF0E0E859FE4F90838F5F80936C
:101040001D0181E00E9474075CC080E00E9474076B
:1010500058C080911D01803230F4E0911D01F0E014
:10106000E859FE4F10820E947E0760911D01E091B9
:101070006401F091650170E088E691E009951092B5
:101080001D010E9489073DC080E00E94740739C09D
:1010900084E08093210110921F0110921E01E091C3
:1010A0006601F0916701099580911E01811105C0CB
:1010B00081E080931E011092440180911F01E82F6E
:1010C000F0E0EC5BFE4F90819093BB008F5F8093CC
:1010D0001F0190911F0180911E01981720F481E05B
:1010E0000E9474070EC080E00E9474070AC081E06D
:1010F0000E9474071092210104C010921C010E94EA
:101100007E07FF91EF91BF91AF919F918F917F915A
:101110006F915F914F913F912F910F900FBE0F9064
:101120001F90189510928D0110928C0110928A01D7
:10113000109289010E94B7060895462F613208F087
:1011400040E261EA71E00E94CA0610928D0180932C
:101150008C01089591E09093880180938B01109207
:101160008A0110928901089521E04091890161EC82
:1011700071E080918B010E94040710928A01109205
:101180008901109288010895CF93DF931F92CDB704
:10119000DEB7898380918801882391F0809189014D
:1011A000803298F480918A01E82FF0E0EF53FE4FEF
:1011B000998190838F5F80938A018093890105C014
:1011C00061E0CE0101960E9454070F90DF91CF910C
:1011D000089580918C0190918D01891B08959091C3
:1011E0008D0180918C01981748F4E92FF0E0EF55BC
:1011F000FE4F80819F5F90938D01089580E0089558
:1012000097FB072E16F4009407D077FD09D00E94B3
:10121000660907FC05D03EF4909581959F4F08958F
:10122000709561957F4F0895A1E21A2EAA1BBB1BF2
:10123000FD010DC0AA1FBB1FEE1FFF1FA217B307A2
:10124000E407F50720F0A21BB30BE40BF50B661FB8
:10125000771F881F991F1A9469F76095709580957C
:1012600090959B01AC01BD01CF010895EE0FFF1FCA
:101270000590F491E02D0994A29FB001B39FC001A5
:10128000A39F01D0B29F700D811D1124911D08955F
:101290000F930F7351F0220F331F441F551F661F0A
:1012A000771F881F991F0A95B1F70F9108950F9323
:1012B0000F7351F096958795779567955795479554
:1012C000379527950A95B1F70F910895AA1BBB1B77
:1012D00051E107C0AA1FBB1FA617B70710F0A61B36
:1012E000B70B881F991F5A95A9F780959095BC0157
:0812F000CD010895F894FFCF31
:0812F8000701020304050600D2
:00000001FF
